:100000000C9462000C9484040C945D040C948A009B
:100010000C948A000C948A000C948A000C948A0038
:100020000C948A000C948A000C948A000C948A0028
:100030000C948A000C948A000C948A000C948A0018
:100040000C9413040C948A000C94D1040C94AB040B
:100050000C948A000C948A000C948A000C948A00F8
:100060000C948A000C948A000000000024002700F1
:100070002A0000000000250028002B0000000000DE
:1000800023002600290004040404040404040202DA
:100090000202020203030303030301020408102007
:1000A0004080010204081020010204081020000012
:1000B0000008000201000003040700000000000027
:1000C0000000030511241FBECFEFD8E0DEBFCDBF77
:1000D00011E0A0E0B1E0E4E4FAE102C005900D9285
:1000E000A631B107D9F722E0A6E1B1E001C01D9227
:1000F000A233B207E1F710E0C2E6D0E004C02197D6
:10010000FE010E94000CC136D107C9F70E949E056E
:100110000C94200D0C940000833081F028F4813081
:1001200099F08230A9F008958730A9F08830C9F09D
:100130008430B1F4809180008F7D03C08091800075
:100140008F7780938000089584B58F7784BD08955C
:1001500084B58F7DFBCF8091B0008F778093B00006
:1001600008958091B0008F7DF9CF1F93CF93DF93D7
:10017000282F30E0F901E255FF4F8491F901E6564E
:10018000FF4FD491F901EA57FF4FC491CC23A9F056
:10019000162F81110E948C00EC2FF0E0EE0FFF1F54
:1001A000EE58FF4FA591B4918FB7F894EC911111CF
:1001B00008C0D095DE23DC938FBFDF91CF911F91D4
:1001C0000895DE2BF8CF60911402809108020E94FE
:1001D000B5008091140291E0892780931402409128
:1001E000060250910702052E000C660B770B8091DA
:1001F000FD019091FE01A091FF01B0910002841BCE
:10020000950BA60BB70B481759076A077B0748F0F1
:100210008093FD019093FE01A093FF01B093000233
:1002200008951092FD011092FE011092FF011092AC
:1002300000020895CF93DF9390E0FC01E656FF4F54
:1002400024918A579F4FFC0184918823D1F090E03C
:10025000880F991FFC01E859FF4FA591B491FC014B
:10026000EE58FF4FC591D491623071F49FB7F89466
:100270003C91822F809583238C93E8812E2B2883B9
:100280009FBFDF91CF9108958FB7F894EC912E2BFB
:100290002C938FBFF6CF3FB7F894809123019091B4
:1002A0002401A0912501B091260126B5A89B05C087
:1002B0002F3F19F00196A11DB11D3FBFBA2FA92FE5
:1002C000982F8827BC01CD01620F711D811D911DE2
:1002D00042E0660F771F881F991F4A95D1F708954E
:1002E0002FB7F89460911F01709120018091210136
:1002F000909122012FBF08950F931F930E947001C8
:100300000091010210910202209103023091040237
:10031000601B710B820B930B61367A4E8105910540
:1003200048F080910502882329F061E080910C0259
:100330000E94B5008FEF9FEF909307028093060213
:100340001F910F910895CF92DF92EF92FF92CF937A
:100350006B017C0120E030E0A9010E947A0A811142
:1003600007C0CF91FF90EF90DF90CF900C947C016D
:10037000C091050220E030E0A901C701B6010E944A
:100380007A0A87FF33C0C11105C060E080910C027A
:100390000E94B500F7FAF094F7F8F09461E08091CC
:1003A0000A020E94B50081E080931502209110029C
:1003B000309111024091120250911302C701B6010F
:1003C0000E94E00A9B01AC0160E074E284EF98E4D3
:1003D0000E94730C0E94E50C709307026093060262
:1003E000CF91FF90EF90DF90CF900895C11105C09D
:1003F00060E080910C020E94B5001092150260E04E
:1004000080910A020E94B500D1CF0895AF92BF92A9
:10041000CF92DF92EF92FF920F931F93CF93DF93D0
:100420006C017B018B01040F151FEB015E01AE18FF
:10043000BF08C017D10759F06991D601ED91FC9121
:100440000190F081E02DC6010995892B79F7C5014E
:10045000DF91CF911F910F91FF90EF90DF90CF90A0
:10046000BF90AF900895FC01538D448D252F30E04F
:10047000842F90E0821B930B541710F0CF960895B1
:1004800001970895FC01918D828D981761F0A28DDE
:10049000AE0FBF2FB11D5D968C91928D9F5F9F73A4
:1004A000928F90E008958FEF9FEF0895FC01918D5A
:1004B000828D981731F0828DE80FF11D858D90E0C7
:1004C00008958FEF9FEF08950F931F930E9470017F
:1004D00060932F017093300180933101909332012A
:1004E00087E291E00E94560297FF1DC00E947001B2
:1004F00000912F0110913001209131013091320192
:10050000601B710B820B930B00912B0110912C013E
:1005100020912D0130912E016017710782079307FA
:10052000F8F28FEF9FEF1F910F910895FC01918DCD
:10053000228D892F90E0805C9F4F821B91098F73E1
:100540009927089587E291E00E94960221E0892B85
:1005500009F420E0822F089580E090E0892B29F0B3
:100560000E94A20281110C9400000895FC01A48D48
:10057000A80FB92FB11DA35ABF4F2C91848D90E0C5
:1005800001968F739927848FA689B7892C93A089A8
:10059000B1898C91837080648C93938D848D981332
:1005A00006C00288F389E02D80818F7D80830895C5
:1005B000EF92FF920F931F93CF93DF93EC0181E0B3
:1005C000888F9B8D8C8D98131AC0E889F98980815A
:1005D00085FF15C09FB7F894EE89FF896083E8898D
:1005E000F98980818370806480839FBF81E090E07F
:1005F000DF91CF911F910F91FF90EF900895F62E0C
:100600000B8D10E00F5F1F4F0F731127E02E8C8DA5
:100610008E110CC00FB607FCFACFE889F9898081EA
:1006200085FFF5CFCE010E94B602F1CFEB8DEC0F26
:10063000FD2FF11DE35AFF4FF0829FB7F8940B8F07
:10064000EA89FB8980818062CFCFCF93DF93EC0171
:10065000888D8823B9F0AA89BB89E889F9898C91AA
:1006600085FD03C0808186FD0DC00FB607FCF7CF66
:100670008C9185FFF2CF808185FFEDCFCE010E9466
:10068000B602E9CFDF91CF910895DC01ED91FD91A4
:100690008081ED91FD919081ED91FD916C91637060
:1006A0008E2309F064609F2309F06860E2E6F3E0BE
:1006B000E60FF11D659565956D936D917D918D9119
:1006C0009D91099423C01AC012C016C010C01EC04C
:1006D00009C014C013C006C019C009C00DC007C0AE
:1006E0000DC014C062507040804090400BC06150FB
:1006F00070408040904006C06E5F01C06F5F7F4FCA
:100700008F4F9F4F9E938E937E936E9308950F937A
:100710001F93CF93DF932091270230E0F901E25538
:10072000FF4F8491F901E656FF4FD491F901EA5742
:10073000FF4FC491CC2309F465C081110E948C0045
:10074000EC2FF0E0EE0FFF1FE458FF4FA591B4919E
:10075000EC91ED2331E020E009F430E0832F922F7B
:10076000282F217030912902231799F0892B89F4C1
:1007700080911502882369F081E080932602F89425
:10078000109221021092220210922302109224024F
:10079000789420932902809125028230B0F5F89454
:1007A0008AE192E00E944503609121027091220249
:1007B0008091230290912402789400912A02109152
:1007C0002B0220912C0230912D02061717072807C3
:1007D000390741F060932A0270932B0280932C0218
:1007E00090932D022091280230E050E040E00E94DA
:1007F0009E0B7093E6016093E501DF91CF911F910D
:100800000F91089590E080E0ABCFF894CDCF809128
:100810001601909117010C94450380911801909155
:1008200019010C9445031F920F920FB60F921124D9
:100830002F933F938F939F93AF93BF9380911F010B
:1008400090912001A0912101B091220130911E01CF
:1008500023E0230F2D3758F50196A11DB11D2093DC
:100860001E0180931F0190932001A0932101B0935A
:1008700022018091230190912401A0912501B09142
:1008800026010196A11DB11D80932301909324019F
:10089000A0932501B0932601BF91AF919F918F91B5
:1008A0003F912F910F900FBE0F901F90189526E843
:1008B000230F0296A11DB11DD2CF1F920F920FB62A
:1008C0000F9211242F933F934F935F936F937F93D6
:1008D0008F939F93AF93BF93EF93FF93E0910201A8
:1008E000F09103010995FF91EF91BF91AF919F9115
:1008F0008F917F916F915F914F913F912F910F90C9
:100900000FBE0F901F9018951F920F920FB60F9267
:1009100011242F933F934F935F936F937F938F9304
:100920009F93AF93BF93EF93FF93E0910001F091FA
:1009300001010995FF91EF91BF91AF919F918F9127
:100940007F916F915F914F913F912F910F900FBECB
:100950000F901F9018951F920F920FB60F921124AF
:100960002F933F934F935F936F937F938F939F93B7
:10097000AF93BF93EF93FF9387E291E00E94B6029B
:10098000FF91EF91BF91AF919F918F917F916F9167
:100990005F914F913F912F910F900FBE0F901F903D
:1009A00018951F920F920FB60F9211242F938F93C9
:1009B0009F93EF93FF93E0913701F091380180818D
:1009C000E0913D01F0913E0182FD1BC0908180913C
:1009D00040018F5F8F7320914101821741F0E091B8
:1009E0004001F0E0E95DFE4F958F80934001FF915B
:1009F000EF919F918F912F910F900FBE0F901F90AD
:100A000018958081F4CFE7E2F1E01382128288EE3C
:100A100093E0A0E0B0E084839583A683B78388E069
:100A200091E09183808385EC90E09587848784ECC6
:100A300090E09787868780EC90E0918B808B81ECAB
:100A400090E0938B828B82EC90E0958B848B86EC8C
:100A500090E0978B868B118E128E138E148EE4ECA1
:100A6000F1E082E390E097878687108A118A128AE4
:100A7000138A80E090E0A8E4B3E4848B958BA68B86
:100A8000B78B108E118E128E138E81E0848F15A27B
:100A900016A217A210A61092010210920202109242
:100AA000030210920402109205021092150288E0CF
:100AB00090E0909317028093160289E090E0909363
:100AC0001902809318021092260287E08093270271
:100AD0008AE2809328021092290289E19CEFAFEF0D
:100AE000BFEF80932A0290932B02A0932C02B09325
:100AF0002D0210922E0210922F02109230021092AC
:100B0000310280E090E0A0EFB1E480839183A28382
:100B1000B3838AE097EDA3E2BCE384839583A68345
:100B2000B78380E090E0A8ECB2E480879187A28749
:100B3000B3878CE291E0958784870895CF93DF9304
:100B4000CDB7DEB761970FB6F894DEBF0FBECDBF4D
:100B5000789484B5826084BD84B5816084BD85B598
:100B6000826085BD85B5816085BD80916E008160A4
:100B700080936E001092810080918100826080934A
:100B8000810080918100816080938100809180004C
:100B90008160809380008091B10084608093B10077
:100BA0008091B00081608093B00080917A00846071
:100BB00080937A0080917A00826080937A0080919D
:100BC0007A00816080937A0080917A0080688093B7
:100BD0007A001092C100E0913701F091380182E073
:100BE0008083E0913301F09134011082E09135016E
:100BF000F091360180E1808310923F01E0913B014A
:100C0000F0913C0186E08083E0913901F0913A0156
:100C1000808180618083E0913901F0913A01808187
:100C200088608083E0913901F0913A018081806889
:100C30008083E0913901F0913A0180818F7D80833A
:100C400061E08DE00E941A0124E130E03A832983BB
:100C500010E001E0612F8DE00E94B5000E944B0181
:100C60004B015C0144E6C42ED12CE12CF12C0E94F6
:100C70004B01681979098A099B09683E734081050F
:100C80009105A8F331E0C31AD108E108F10848EE54
:100C9000840E43E0941EA11CB11CC114D104E104D4
:100CA000F10429F7102789819A8101979A83898312
:100CB000892B81F61092ED011092EE011092EF0156
:100CC0001092F0011092E8011092E7011092F101E8
:100CD0001092F2011092F3011092F40184E090E07E
:100CE000909309028093080283E090E090930B02B6
:100CF00080930A028BE090E090930D0280930C02A7
:100D000061E084E00E941A0161E080910A020E9481
:100D10001A0161E080910C020E941A0184EE98E3AE
:100D2000AEE0B1E48093100290931102A0931202FE
:100D3000B09313021092FD011092FE011092FF0178
:100D4000109200021092140262E088E00E941A01E0
:100D500062E089E00E941A01EEE8F0E0E491F0E040
:100D6000EE0FFF1FE458FF4FA591B491B0931B0203
:100D7000A0931A02E2EAF0E0449140931E02EFE8E9
:100D8000F0E0E491F0E0EE0FFF1FE458FF4F6591B3
:100D9000749170931D0260931C02E3EAF0E0E49109
:100DA000E0931F021092210210922202109223025D
:100DB000109224022BE33FE1C9010197F1F79C91C6
:100DC000842F892391E009F490E0DB018C91E823E2
:100DD00009F0926090932002109225020E947C01FB
:100DE0001092E2011092E10162E0809127020E94DC
:100DF0001A010E9470014B015C0180912602811151
:100E000058C0B0E68B16BAEE9B06A104B10408F0F8
:100E100050C00E944B016B017C012091ED0130918B
:100E2000EE014091EF015091F00129833A834B8309
:100E30005C83C092ED01D092EE01E092EF01F0925E
:100E4000F00160E070E086E193EC0E94A3010E9453
:100E5000870380910602909107028F3F980769F2FD
:100E60004091FD015091FE016091FF0170910002DF
:100E7000C40ED51EE61EF71E29813A814B815C8186
:100E8000C21AD30AE40AF50AC092FD01D092FE010B
:100E9000E092FF01F0920002092E000CAA0BBB0B9E
:100EA000C816D906EA06FB0608F4A7CF0E94E3009D
:100EB000A4CF00E010E087E291E00E9496021816AD
:100EC00019060CF0A9C00E946402FC0197FD99C1AB
:100ED0008D32910541F0C0970A9728F087E291E0A2
:100EE0000E944202F0CFC12CD12C76011982E13050
:100EF000F105D9F0ED32F10509F480C1CF01C097B9
:100F00000A9798F4AAE0B0E0A70196010E94BD0BF1
:100F10006F01FF0FEE08FF08C60ED71EE81EF91E70
:100F200030E3C31AD108E108F10887E291E00E949A
:100F300042020E946402FC01C0970A97C0F2E130AD
:100F4000F105A9F25981552341F0F094E094D09431
:100F5000C094C11CD11CE11CF11C87E291E00E94ED
:100F6000420287E291E00E9425030E947001A9E6F7
:100F7000CA16A1E0DA0608F04FC080901A019090DE
:100F80001B01A0901C01B0901D01681979098A0904
:100F90009B096131774281059105F0F10E94700152
:100FA00060931A0170931B0180931C0190931D01A3
:100FB00021E02093E0016091CC017091CD018091FE
:100FC000CE019091CF010E94E50C7093D301609304
:100FD000D201109205021092DC011092DD011092F4
:100FE000DE011092DF010E9470016093D4017093C2
:100FF000D5018093D6019093D701D60128E230E045
:101000000E94F90B28E631E040E050E00E949E0B80
:101010003093E2012093E1010E944B01C090ED0169
:10102000D090EE01E090EF01F090F0019B01AC0157
:101030002C193D094E095F092D833E834F83588744
:101040006093ED017093EE018093EF019093F001B6
:10105000C090F101D090F201E090F301F090F40122
:10106000C20ED31EE41EF51EC092F101D092F20111
:10107000E092F301F092F40131E1C31637E2D306B6
:10108000E104F10408F482C0A090E501B090E6010B
:10109000B5010B2C000C880B990B0E94810A609300
:1010A000F9017093FA018093FB019093FC01809108
:1010B000E7019091E801B501681B790B072E000C40
:1010C000880B990B0E94810A20E030E040E051E457
:1010D0000E94E00A4B015C01C701B6010E947F0A31
:1010E00020E030E048EC52E40E94730C9B01AC011C
:1010F000C501B4010E94730C6093F5017093F60171
:101100008093F7019093F8010E947001C090D40180
:10111000D090D501E090D601F090D7019B01AC01B1
:101120002C193D094E095F0969017A018D819E8163
:10113000AF81B885B095A095909581959F4FAF4FA1
:10114000BF4F89879A87AB87BC8791E6C9169AEE0D
:10115000D906E104F10408F458C061E080910C0262
:101160000E94B5008091E5019091E6019093E8011D
:101170008093E701C984DA84EB84FC84C092F10196
:10118000D092F201E092F301F092F4010E94870301
:1011900040910602509107024F3F540719F1809188
:1011A000FD019091FE01A091FF01B0910002CD8060
:1011B000DE80EF80F8848C0D9D1DAE1DBF1D8093D9
:1011C000FD019093FE01A093FF01B0930002052E54
:1011D000000C660B770B84179507A607B70710F06E
:1011E0000E94E3000115110509F465CE0E94A202D8
:1011F000882309F460CE0E9400005DCE41E049835F
:1012000094CEC12CD12C7601A8CE6091E1017091D1
:10121000E201072E000C880B990B0E94810A209195
:10122000F9013091FA014091FB015091FC010E94BB
:10123000060C69837A838B839C832091C40130914F
:10124000C5014091C6015091C7010E94E00A4B01BF
:101250005C0120910502298B21112DC0C701B60127
:101260000E947F0A2091C8013091C9014091CA01B2
:101270005091CB010E94E00A6B017C014090D801A3
:101280005090D9016090DA017090DB01A3019201C6
:101290000E941B0D181614F02601370120E030E0E3
:1012A000A901C501B4010E947A0A87FF04C077FA38
:1012B000709477F87094A3019201C501B4010E9463
:1012C000070C6B017C0120E030E0A9010E941B0D9E
:1012D00018160CF486C0D701C601B0588D879E87BA
:1012E000AF87B88B8090DC019090DD01A090DE018B
:1012F000B090DF0120E030E0A901C501B4010E94F7
:101300001B0D181624F0B7FAB094B7F8B094A501E5
:1013100094016D857E858F8598890E947A0A87FD64
:101320001092E001C092DC01D092DD01E092DE017A
:10133000F092DF018091E001882359F18091D20180
:101340009091D30101969093D3018093D201209183
:10135000D0013091D1012817390734F43093D301EB
:101360002093D2011092E001A090D201B090D3015D
:1013700020E030E0A901C701B6010E941B0D18163C
:10138000ACF5B501BB0C880B990B0E94810A6B016F
:101390007C0120E030E0A90169817A818B819C8108
:1013A0000E941B0D18165CF520E030E040E050E490
:1013B00069817A818B819C810E947A0A87FF2BC088
:1013C000998991110AC00E94700160930102709383
:1013D00002028093030290930402A1E0A09305020D
:1013E0001AC0CD86DE86EF86F88A7CCF66277727FF
:1013F0006A197B09072E000C880B990BC6CF20E0D9
:1014000030E040E050EC69817A818B819C810E94C0
:101410001B0D1816ACF220E030E0A901C701B6019F
:101420000E947A0A87FF36C020E030E040EF52EC9D
:10143000C701B6010E941B0D18160CF445C060913F
:10144000E1017091E201072E000C880B990B0E94BC
:10145000810A2091F9013091FA014091FB015091EC
:10146000FC010E94060C4B015C0120E030E0A90168
:101470000E941B0D18167CF520E030E040E050E49F
:10148000C501B4010E947A0A87FF2FC0C12CD12C5C
:1014900076012BC020E030E040EF52E4C701B601F6
:1014A0000E947A0A87FFCBCF20E030E0A901C70174
:1014B000B6010E947A0A882311F2C12CD12C80EF48
:1014C000E82E82E4F82EBBCFC12CD12C90EFE92E70
:1014D00092ECF92EB4CF20E030E040E050ECC501B2
:1014E000B4010E941B0D18168CF2C701B6010E94B0
:1014F000A30138CE0E94BC0A08F481E00895E89464
:1015000009C097FB3EF490958095709561957F4F4B
:101510008F4F9F4F9923A9F0F92F96E9BB279395F9
:10152000F695879577956795B795F111F8CFFAF409
:10153000BB0F11F460FF1BC06F5F7F4F8F4F9F4F3A
:1015400016C0882311F096E911C0772321F09EE898
:10155000872F762F05C0662371F096E8862F70E0FE
:1015600060E02AF09A95660F771F881FDAF7880FD8
:101570009695879597F90895990F0008550FAA0B2E
:10158000E0E8FEEF16161706E807F907C0F0121696
:101590001306E407F50798F0621B730B840B950B99
:1015A00039F40A2661F0232B242B252B21F40895EE
:1015B0000A2609F4A140A6958FEF811D811D08958B
:1015C0000E94F30A0C94640B0E94560B38F00E94A0
:1015D0005D0B20F0952311F00C944D0B0C94530BE4
:1015E00011240C94980B0E94750B70F3959FC1F316
:1015F000950F50E0551F629FF001729FBB27F00DC1
:10160000B11D639FAA27F00DB11DAA1F649F662715
:10161000B00DA11D661F829F2227B00DA11D621F64
:10162000739FB00DA11D621F839FA00D611D221F1E
:10163000749F3327A00D611D231F849F600D211D02
:10164000822F762F6A2F11249F5750409AF0F1F085
:1016500088234AF0EE0FFF1FBB1F661F771F881FEE
:1016600091505040A9F79E3F510580F00C944D0BCE
:101670000C94980B5F3FE4F3983ED4F386957795EE
:101680006795B795F795E7959F5FC1F7FE2B880F94
:10169000911D9695879597F9089597F99F6780E82A
:1016A00070E060E008959FEF80EC089500240A94B4
:1016B0001616170618060906089500240A9412162D
:1016C0001306140605060895092E0394000C11F460
:1016D000882352F0BB0F40F4BF2B11F460FF04C00D
:1016E0006F5F7F4F8F4F9F4F089557FD9058440F66
:1016F000551F59F05F3F71F04795880F97FB991F71
:1017000061F09F3F79F0879508951216130614062D
:10171000551FF2CF4695F1DF08C0161617061806BA
:10172000991FF1CF86957105610508940895E89495
:10173000BB2766277727CB0197F90895052E97FBDE
:101740001EF400940E94B50B57FD07D00E94C80BF1
:1017500007FC03D04EF40C94B50B50954095309592
:1017600021953F4F4F4F5F4F08959095809570950D
:1017700061957F4F8F4F9F4F08950E94EA0BA59F61
:10178000900DB49F900DA49F800D911D112408957C
:10179000A1E21A2EAA1BBB1BFD010DC0AA1FBB1F75
:1017A000EE1FFF1FA217B307E407F50720F0A21BE7
:1017B000B30BE40BF50B661F771F881F991F1A9454
:1017C00069F760957095809590959B01AC01BD017E
:1017D000CF010895A29FB001B39FC001A39F700DD8
:1017E000811D1124911DB29F700D811D1124911D29
:1017F00008950E94EA0BB7FF0895821B930B08958A
:10180000EE0FFF1F0590F491E02D09945058BB276F
:10181000AA270E941E0C0C94640B0E94560B38F0F1
:101820000E945D0B20F039F49F3F19F426F40C94CC
:10183000530B0EF4E095E7FB0C944D0BE92F0E943F
:10184000750B58F3BA17620773078407950720F0E2
:1018500079F4A6F50C94970B0EF4E0950B2EBA2FA5
:10186000A02D0B01B90190010C01CA01A0011124A6
:10187000FF27591B99F0593F50F4503E68F11A1652
:10188000F040A22F232F342F4427585FF3CF4695E3
:1018900037952795A795F0405395C9F77EF41F1605
:1018A000BA0B620B730B840BBAF09150A1F0FF0FCF
:1018B000BB1F661F771F881FC2F70EC0BA0F621FBB
:1018C000731F841F48F4879577956795B795F795AB
:1018D0009E3F08F0B0CF9395880F08F09927EE0F40
:1018E0009795879508950E94870C0C94640B0E942D
:1018F0005D0B58F00E94560B40F029F45F3F29F031
:101900000C944D0B51110C94980B0C94530B0E949A
:10191000750B68F39923B1F3552391F3951B550B80
:10192000BB27AA2762177307840738F09F5F5F4FB2
:10193000220F331F441FAA1FA9F335D00E2E3AF0F1
:10194000E0E832D091505040E695001CCAF72BD009
:10195000FE2F29D0660F771F881FBB1F261737075A
:101960004807AB07B0E809F0BB0B802DBF01FF278C
:1019700093585F4F3AF09E3F510578F00C944D0B11
:101980000C94980B5F3FE4F3983ED4F386957795DB
:101990006795B795F7959F5FC9F7880F911D969545
:1019A000879597F90895E1E0660F771F881FBB1FA1
:1019B000621773078407BA0720F0621B730B840B4E
:1019C000BA0BEE1F88F7E09508950E94EC0C68941E
:1019D000B1110C94980B08950E947D0B88F09F57CD
:1019E00098F0B92F9927B751B0F0E1F0660F771F43
:1019F000881F991F1AF0BA95C9F714C0B13091F039
:101A00000E94970BB1E008950C94970B672F782FE5
:101A10008827B85F39F0B93FCCF3869577956795FD
:101A2000B395D9F73EF490958095709561957F4F69
:101A30008F4F9F4F08950E94BC0A08F48FEF0895BE
:041A4000F894FFCF48
:101A44000502050200000000D80206023302250345
:061A540096024202560258
:00000001FF
